{
  "_format": "hh3-artifact-1",
  "contractName": "BlueCarbonRegistry",
  "sourceName": "contracts/BlueCarbonRegistry.sol",
  "abi": [
    {
      "inputs": [
        {
          "internalType": "string",
          "name": "name_",
          "type": "string"
        },
        {
          "internalType": "string",
          "name": "symbol_",
          "type": "string"
        }
      ],
      "stateMutability": "nonpayable",
      "type": "constructor"
    },
    {
      "anonymous": false,
      "inputs": [
        {
          "indexed": true,
          "internalType": "address",
          "name": "owner",
          "type": "address"
        },
        {
          "indexed": true,
          "internalType": "address",
          "name": "approved",
          "type": "address"
        },
        {
          "indexed": true,
          "internalType": "uint256",
          "name": "tokenId",
          "type": "uint256"
        }
      ],
      "name": "Approval",
      "type": "event"
    },
    {
      "anonymous": false,
      "inputs": [
        {
          "indexed": true,
          "internalType": "address",
          "name": "owner",
          "type": "address"
        },
        {
          "indexed": true,
          "internalType": "address",
          "name": "operator",
          "type": "address"
        },
        {
          "indexed": false,
          "internalType": "bool",
          "name": "approved",
          "type": "bool"
        }
      ],
      "name": "ApprovalForAll",
      "type": "event"
    },
    {
      "anonymous": false,
      "inputs": [
        {
          "indexed": true,
          "internalType": "uint256",
          "name": "tokenId",
          "type": "uint256"
        },
        {
          "indexed": true,
          "internalType": "address",
          "name": "to",
          "type": "address"
        },
        {
          "indexed": false,
          "internalType": "string",
          "name": "projectId",
          "type": "string"
        },
        {
          "indexed": false,
          "internalType": "string",
          "name": "location",
          "type": "string"
        },
        {
          "indexed": false,
          "internalType": "string",
          "name": "verificationId",
          "type": "string"
        }
      ],
      "name": "CreditIssued",
      "type": "event"
    },
    {
      "anonymous": false,
      "inputs": [
        {
          "indexed": true,
          "internalType": "uint256",
          "name": "tokenId",
          "type": "uint256"
        },
        {
          "indexed": true,
          "internalType": "address",
          "name": "retiredBy",
          "type": "address"
        }
      ],
      "name": "CreditRetired",
      "type": "event"
    },
    {
      "anonymous": false,
      "inputs": [
        {
          "indexed": true,
          "internalType": "bytes32",
          "name": "role",
          "type": "bytes32"
        },
        {
          "indexed": true,
          "internalType": "bytes32",
          "name": "previousAdminRole",
          "type": "bytes32"
        },
        {
          "indexed": true,
          "internalType": "bytes32",
          "name": "newAdminRole",
          "type": "bytes32"
        }
      ],
      "name": "RoleAdminChanged",
      "type": "event"
    },
    {
      "anonymous": false,
      "inputs": [
        {
          "indexed": true,
          "internalType": "bytes32",
          "name": "role",
          "type": "bytes32"
        },
        {
          "indexed": true,
          "internalType": "address",
          "name": "account",
          "type": "address"
        },
        {
          "indexed": true,
          "internalType": "address",
          "name": "sender",
          "type": "address"
        }
      ],
      "name": "RoleGranted",
      "type": "event"
    },
    {
      "anonymous": false,
      "inputs": [
        {
          "indexed": true,
          "internalType": "bytes32",
          "name": "role",
          "type": "bytes32"
        },
        {
          "indexed": true,
          "internalType": "address",
          "name": "account",
          "type": "address"
        },
        {
          "indexed": true,
          "internalType": "address",
          "name": "sender",
          "type": "address"
        }
      ],
      "name": "RoleRevoked",
      "type": "event"
    },
    {
      "anonymous": false,
      "inputs": [
        {
          "indexed": true,
          "internalType": "address",
          "name": "from",
          "type": "address"
        },
        {
          "indexed": true,
          "internalType": "address",
          "name": "to",
          "type": "address"
        },
        {
          "indexed": true,
          "internalType": "uint256",
          "name": "tokenId",
          "type": "uint256"
        }
      ],
      "name": "Transfer",
      "type": "event"
    },
    {
      "inputs": [],
      "name": "DEFAULT_ADMIN_ROLE",
      "outputs": [
        {
          "internalType": "bytes32",
          "name": "",
          "type": "bytes32"
        }
      ],
      "stateMutability": "view",
      "type": "function"
    },
    {
      "inputs": [],
      "name": "ISSUER_ROLE",
      "outputs": [
        {
          "internalType": "bytes32",
          "name": "",
          "type": "bytes32"
        }
      ],
      "stateMutability": "view",
      "type": "function"
    },
    {
      "inputs": [
        {
          "internalType": "address",
          "name": "to",
          "type": "address"
        },
        {
          "internalType": "uint256",
          "name": "tokenId",
          "type": "uint256"
        }
      ],
      "name": "approve",
      "outputs": [],
      "stateMutability": "nonpayable",
      "type": "function"
    },
    {
      "inputs": [
        {
          "internalType": "address",
          "name": "owner",
          "type": "address"
        }
      ],
      "name": "balanceOf",
      "outputs": [
        {
          "internalType": "uint256",
          "name": "",
          "type": "uint256"
        }
      ],
      "stateMutability": "view",
      "type": "function"
    },
    {
      "inputs": [
        {
          "internalType": "uint256",
          "name": "",
          "type": "uint256"
        }
      ],
      "name": "credits",
      "outputs": [
        {
          "internalType": "string",
          "name": "projectId",
          "type": "string"
        },
        {
          "internalType": "string",
          "name": "location",
          "type": "string"
        },
        {
          "internalType": "string",
          "name": "verificationId",
          "type": "string"
        },
        {
          "internalType": "uint256",
          "name": "issuedAt",
          "type": "uint256"
        },
        {
          "internalType": "bool",
          "name": "retired",
          "type": "bool"
        }
      ],
      "stateMutability": "view",
      "type": "function"
    },
    {
      "inputs": [
        {
          "internalType": "uint256",
          "name": "tokenId",
          "type": "uint256"
        }
      ],
      "name": "getApproved",
      "outputs": [
        {
          "internalType": "address",
          "name": "",
          "type": "address"
        }
      ],
      "stateMutability": "view",
      "type": "function"
    },
    {
      "inputs": [
        {
          "internalType": "bytes32",
          "name": "role",
          "type": "bytes32"
        }
      ],
      "name": "getRoleAdmin",
      "outputs": [
        {
          "internalType": "bytes32",
          "name": "",
          "type": "bytes32"
        }
      ],
      "stateMutability": "view",
      "type": "function"
    },
    {
      "inputs": [
        {
          "internalType": "bytes32",
          "name": "role",
          "type": "bytes32"
        },
        {
          "internalType": "address",
          "name": "account",
          "type": "address"
        }
      ],
      "name": "grantRole",
      "outputs": [],
      "stateMutability": "nonpayable",
      "type": "function"
    },
    {
      "inputs": [
        {
          "internalType": "bytes32",
          "name": "role",
          "type": "bytes32"
        },
        {
          "internalType": "address",
          "name": "account",
          "type": "address"
        }
      ],
      "name": "hasRole",
      "outputs": [
        {
          "internalType": "bool",
          "name": "",
          "type": "bool"
        }
      ],
      "stateMutability": "view",
      "type": "function"
    },
    {
      "inputs": [
        {
          "internalType": "address",
          "name": "owner",
          "type": "address"
        },
        {
          "internalType": "address",
          "name": "operator",
          "type": "address"
        }
      ],
      "name": "isApprovedForAll",
      "outputs": [
        {
          "internalType": "bool",
          "name": "",
          "type": "bool"
        }
      ],
      "stateMutability": "view",
      "type": "function"
    },
    {
      "inputs": [
        {
          "internalType": "string",
          "name": "projectId",
          "type": "string"
        },
        {
          "internalType": "string",
          "name": "location",
          "type": "string"
        },
        {
          "internalType": "string",
          "name": "verificationId",
          "type": "string"
        }
      ],
      "name": "isVerificationUsed",
      "outputs": [
        {
          "internalType": "bool",
          "name": "",
          "type": "bool"
        }
      ],
      "stateMutability": "view",
      "type": "function"
    },
    {
      "inputs": [
        {
          "internalType": "address",
          "name": "to",
          "type": "address"
        },
        {
          "internalType": "string",
          "name": "projectId",
          "type": "string"
        },
        {
          "internalType": "string",
          "name": "location",
          "type": "string"
        },
        {
          "internalType": "string",
          "name": "verificationId",
          "type": "string"
        }
      ],
      "name": "issueCredit",
      "outputs": [
        {
          "internalType": "uint256",
          "name": "",
          "type": "uint256"
        }
      ],
      "stateMutability": "nonpayable",
      "type": "function"
    },
    {
      "inputs": [],
      "name": "name",
      "outputs": [
        {
          "internalType": "string",
          "name": "",
          "type": "string"
        }
      ],
      "stateMutability": "view",
      "type": "function"
    },
    {
      "inputs": [
        {
          "internalType": "uint256",
          "name": "tokenId",
          "type": "uint256"
        }
      ],
      "name": "ownerOf",
      "outputs": [
        {
          "internalType": "address",
          "name": "",
          "type": "address"
        }
      ],
      "stateMutability": "view",
      "type": "function"
    },
    {
      "inputs": [
        {
          "internalType": "bytes32",
          "name": "role",
          "type": "bytes32"
        },
        {
          "internalType": "address",
          "name": "account",
          "type": "address"
        }
      ],
      "name": "renounceRole",
      "outputs": [],
      "stateMutability": "nonpayable",
      "type": "function"
    },
    {
      "inputs": [
        {
          "internalType": "uint256",
          "name": "tokenId",
          "type": "uint256"
        }
      ],
      "name": "retire",
      "outputs": [],
      "stateMutability": "nonpayable",
      "type": "function"
    },
    {
      "inputs": [
        {
          "internalType": "bytes32",
          "name": "role",
          "type": "bytes32"
        },
        {
          "internalType": "address",
          "name": "account",
          "type": "address"
        }
      ],
      "name": "revokeRole",
      "outputs": [],
      "stateMutability": "nonpayable",
      "type": "function"
    },
    {
      "inputs": [
        {
          "internalType": "address",
          "name": "from",
          "type": "address"
        },
        {
          "internalType": "address",
          "name": "to",
          "type": "address"
        },
        {
          "internalType": "uint256",
          "name": "tokenId",
          "type": "uint256"
        }
      ],
      "name": "safeTransferFrom",
      "outputs": [],
      "stateMutability": "nonpayable",
      "type": "function"
    },
    {
      "inputs": [
        {
          "internalType": "address",
          "name": "from",
          "type": "address"
        },
        {
          "internalType": "address",
          "name": "to",
          "type": "address"
        },
        {
          "internalType": "uint256",
          "name": "tokenId",
          "type": "uint256"
        },
        {
          "internalType": "bytes",
          "name": "data",
          "type": "bytes"
        }
      ],
      "name": "safeTransferFrom",
      "outputs": [],
      "stateMutability": "nonpayable",
      "type": "function"
    },
    {
      "inputs": [
        {
          "internalType": "address",
          "name": "operator",
          "type": "address"
        },
        {
          "internalType": "bool",
          "name": "approved",
          "type": "bool"
        }
      ],
      "name": "setApprovalForAll",
      "outputs": [],
      "stateMutability": "nonpayable",
      "type": "function"
    },
    {
      "inputs": [
        {
          "internalType": "bytes4",
          "name": "interfaceId",
          "type": "bytes4"
        }
      ],
      "name": "supportsInterface",
      "outputs": [
        {
          "internalType": "bool",
          "name": "",
          "type": "bool"
        }
      ],
      "stateMutability": "view",
      "type": "function"
    },
    {
      "inputs": [],
      "name": "symbol",
      "outputs": [
        {
          "internalType": "string",
          "name": "",
          "type": "string"
        }
      ],
      "stateMutability": "view",
      "type": "function"
    },
    {
      "inputs": [
        {
          "internalType": "uint256",
          "name": "tokenId",
          "type": "uint256"
        }
      ],
      "name": "tokenURI",
      "outputs": [
        {
          "internalType": "string",
          "name": "",
          "type": "string"
        }
      ],
      "stateMutability": "view",
      "type": "function"
    },
    {
      "inputs": [
        {
          "internalType": "address",
          "name": "from",
          "type": "address"
        },
        {
          "internalType": "address",
          "name": "to",
          "type": "address"
        },
        {
          "internalType": "uint256",
          "name": "tokenId",
          "type": "uint256"
        }
      ],
      "name": "transferFrom",
      "outputs": [],
      "stateMutability": "nonpayable",
      "type": "function"
    }
  ],
  "bytecode": "0x60806040523480156200001157600080fd5b506040516200476f3803806200476f8339818101604052810190620000379190620003a6565b818181600090816200004a919062000676565b5080600190816200005c919062000676565b505050620000746000801b33620000ae60201b60201c565b620000a67f114e74f6ea3bd819998f78687bfcb11b140da08e9b7d222fa9c1f1ba1f2aa12233620000ae60201b60201c565b50506200075d565b620000c08282620001a060201b60201c565b6200019c5760016006600084815260200190815260200160002060000160008373ffffffffffffffffffffffffffffffffffffffff1673ffffffffffffffffffffffffffffffffffffffff16815260200190815260200160002060006101000a81548160ff021916908315150217905550620001416200020b60201b60201c565b73ffffffffffffffffffffffffffffffffffffffff168173ffffffffffffffffffffffffffffffffffffffff16837f2f8788117e7eff1d82e926ec794901d17c78024a50270940304540a733656f0d60405160405180910390a45b5050565b60006006600084815260200190815260200160002060000160008373ffffffffffffffffffffffffffffffffffffffff1673ffffffffffffffffffffffffffffffffffffffff16815260200190815260200160002060009054906101000a900460ff16905092915050565b600033905090565b6000604051905090565b600080fd5b600080fd5b600080fd5b600080fd5b6000601f19601f8301169050919050565b7f4e487b7100000000000000000000000000000000000000000000000000000000600052604160045260246000fd5b6200027c8262000231565b810181811067ffffffffffffffff821117156200029e576200029d62000242565b5b80604052505050565b6000620002b362000213565b9050620002c1828262000271565b919050565b600067ffffffffffffffff821115620002e457620002e362000242565b5b620002ef8262000231565b9050602081019050919050565b60005b838110156200031c578082015181840152602081019050620002ff565b60008484015250505050565b60006200033f6200033984620002c6565b620002a7565b9050828152602081018484840111156200035e576200035d6200022c565b5b6200036b848285620002fc565b509392505050565b600082601f8301126200038b576200038a62000227565b5b81516200039d84826020860162000328565b91505092915050565b60008060408385031215620003c057620003bf6200021d565b5b600083015167ffffffffffffffff811115620003e157620003e062000222565b5b620003ef8582860162000373565b925050602083015167ffffffffffffffff81111562000413576200041262000222565b5b620004218582860162000373565b9150509250929050565b600081519050919050565b7f4e487b7100000000000000000000000000000000000000000000000000000000600052602260045260246000fd5b600060028204905060018216806200047e57607f821691505b60208210810362000494576200049362000436565b5b50919050565b60008190508160005260206000209050919050565b60006020601f8301049050919050565b600082821b905092915050565b600060088302620004fe7fffffffffffffffffffffffffffffffffffffffffffffffffffffffffffffffff82620004bf565b6200050a8683620004bf565b95508019841693508086168417925050509392505050565b6000819050919050565b6000819050919050565b600062000557620005516200054b8462000522565b6200052c565b62000522565b9050919050565b6000819050919050565b620005738362000536565b6200058b62000582826200055e565b848454620004cc565b825550505050565b600090565b620005a262000593565b620005af81848462000568565b505050565b5b81811015620005d757620005cb60008262000598565b600181019050620005b5565b5050565b601f8211156200062657620005f0816200049a565b620005fb84620004af565b810160208510156200060b578190505b620006236200061a85620004af565b830182620005b4565b50505b505050565b600082821c905092915050565b60006200064b600019846008026200062b565b1980831691505092915050565b600062000666838362000638565b9150826002028217905092915050565b62000681826200042b565b67ffffffffffffffff8111156200069d576200069c62000242565b5b620006a9825462000465565b620006b6828285620005db565b600060209050601f831160018114620006ee5760008415620006d9578287015190505b620006e5858262000658565b86555062000755565b601f198416620006fe866200049a565b60005b82811015620007285784890151825560018201915060208501945060208101905062000701565b8683101562000748578489015162000744601f89168262000638565b8355505b6001600288020188555050505b505050505050565b614002806200076d6000396000f3fe608060405234801561001057600080fd5b50600436106101585760003560e01c80636352211e116100c3578063a22cb4651161007c578063a22cb46514610401578063b88d4fde1461041d578063c87b56dd14610439578063d547741f14610469578063e985e9c514610485578063f12ead29146104b557610158565b80636352211e1461031757806370a082311461034757806382aefa241461037757806391d148541461039557806395d89b41146103c5578063a217fddf146103e357610158565b8063248a9ca311610115578063248a9ca3146102475780632f2ff15d1461027757806336568abe146102935780633790cf57146102af57806342842e0e146102cb5780635ec11baf146102e757610158565b806301ffc9a71461015d578063036a1c221461018d57806306fdde03146101c1578063081812fc146101df578063095ea7b31461020f57806323b872dd1461022b575b600080fd5b6101776004803603810190610172919061279a565b6104e5565b60405161018491906127e2565b60405180910390f35b6101a760048036038101906101a29190612833565b6104f7565b6040516101b89594939291906128ff565b60405180910390f35b6101c96106d2565b6040516101d69190612967565b60405180910390f35b6101f960048036038101906101f49190612833565b610764565b60405161020691906129ca565b60405180910390f35b61022960048036038101906102249190612a11565b6107aa565b005b61024560048036038101906102409190612a51565b6108c1565b005b610261600480360381019061025c9190612ada565b610921565b60405161026e9190612b16565b60405180910390f35b610291600480360381019061028c9190612b31565b610941565b005b6102ad60048036038101906102a89190612b31565b610962565b005b6102c960048036038101906102c49190612833565b6109e5565b005b6102e560048036038101906102e09190612a51565b610bc6565b005b61030160048036038101906102fc9190612ca6565b610be6565b60405161030e9190612d61565b60405180910390f35b610331600480360381019061032c9190612833565b610e04565b60405161033e91906129ca565b60405180910390f35b610361600480360381019061035c9190612d7c565b610e8a565b60405161036e9190612d61565b60405180910390f35b61037f610f41565b60405161038c9190612b16565b60405180910390f35b6103af60048036038101906103aa9190612b31565b610f65565b6040516103bc91906127e2565b60405180910390f35b6103cd610fd0565b6040516103da9190612967565b60405180910390f35b6103eb611062565b6040516103f89190612b16565b60405180910390f35b61041b60048036038101906104169190612dd5565b611069565b005b61043760048036038101906104329190612eb6565b61107f565b005b610453600480360381019061044e9190612833565b6110e1565b6040516104609190612967565b60405180910390f35b610483600480360381019061047e9190612b31565b611149565b005b61049f600480360381019061049a9190612f39565b61116a565b6040516104ac91906127e2565b60405180910390f35b6104cf60048036038101906104ca9190612f79565b6111fe565b6040516104dc91906127e2565b60405180910390f35b60006104f082611259565b9050919050565b600860205280600052604060002060009150905080600001805461051a9061304f565b80601f01602080910402602001604051908101604052809291908181526020018280546105469061304f565b80156105935780601f1061056857610100808354040283529160200191610593565b820191906000526020600020905b81548152906001019060200180831161057657829003601f168201915b5050505050908060010180546105a89061304f565b80601f01602080910402602001604051908101604052809291908181526020018280546105d49061304f565b80156106215780601f106105f657610100808354040283529160200191610621565b820191906000526020600020905b81548152906001019060200180831161060457829003601f168201915b5050505050908060020180546106369061304f565b80601f01602080910402602001604051908101604052809291908181526020018280546106629061304f565b80156106af5780601f10610684576101008083540402835291602001916106af565b820191906000526020600020905b81548152906001019060200180831161069257829003601f168201915b5050505050908060030154908060040160009054906101000a900460ff16905085565b6060600080546106e19061304f565b80601f016020809104026020016040519081016040528092919081815260200182805461070d9061304f565b801561075a5780601f1061072f5761010080835404028352916020019161075a565b820191906000526020600020905b81548152906001019060200180831161073d57829003601f168201915b5050505050905090565b600061076f826112d3565b6004600083815260200190815260200160002060009054906101000a900473ffffffffffffffffffffffffffffffffffffffff169050919050565b60006107b582610e04565b90508073ffffffffffffffffffffffffffffffffffffffff168373ffffffffffffffffffffffffffffffffffffffff1603610825576040517f08c379a000000000000000000000000000000000000000000000000000000000815260040161081c906130f2565b60405180910390fd5b8073ffffffffffffffffffffffffffffffffffffffff1661084461131e565b73ffffffffffffffffffffffffffffffffffffffff16148061087357506108728161086d61131e565b61116a565b5b6108b2576040517f08c379a00000000000000000000000000000000000000000000000000000000081526004016108a990613184565b60405180910390fd5b6108bc8383611326565b505050565b6108d26108cc61131e565b826113df565b610911576040517f08c379a000000000000000000000000000000000000000000000000000000000815260040161090890613216565b60405180910390fd5b61091c838383611474565b505050565b600060066000838152602001908152602001600020600101549050919050565b61094a82610921565b6109538161176d565b61095d8383611781565b505050565b61096a61131e565b73ffffffffffffffffffffffffffffffffffffffff168173ffffffffffffffffffffffffffffffffffffffff16146109d7576040517f08c379a00000000000000000000000000000000000000000000000000000000081526004016109ce906132a8565b60405180910390fd5b6109e18282611862565b5050565b600073ffffffffffffffffffffffffffffffffffffffff16610a0682611944565b73ffffffffffffffffffffffffffffffffffffffff1603610a5c576040517f08c379a0000000000000000000000000000000000000000000000000000000008152600401610a5390613314565b60405180910390fd5b6000610a6782610e04565b90508073ffffffffffffffffffffffffffffffffffffffff163373ffffffffffffffffffffffffffffffffffffffff161480610aac5750610aab6000801b33610f65565b5b610aeb576040517f08c379a0000000000000000000000000000000000000000000000000000000008152600401610ae290613380565b60405180910390fd5b6008600083815260200190815260200160002060040160009054906101000a900460ff1615610b4f576040517f08c379a0000000000000000000000000000000000000000000000000000000008152600401610b46906133ec565b60405180910390fd5b60016008600084815260200190815260200160002060040160006101000a81548160ff0219169083151502179055503373ffffffffffffffffffffffffffffffffffffffff16827fa0f88bdc93ff6217657196ec633234f6709c7e841f6bfc701d62861f30e40f0c60405160405180910390a35050565b610be18383836040518060200160405280600081525061107f565b505050565b60007f114e74f6ea3bd819998f78687bfcb11b140da08e9b7d222fa9c1f1ba1f2aa122610c128161176d565b6000858585604051602001610c2993929190613448565b6040516020818303038152906040528051906020012090506009600082815260200190815260200160002060009054906101000a900460ff1615610ca2576040517f08c379a0000000000000000000000000000000000000000000000000000000008152600401610c99906134c5565b60405180910390fd5b6000600754905060076000815480929190610cbc90613514565b9190505550610ccb8882611981565b6040518060a0016040528088815260200187815260200186815260200142815260200160001515815250600860008381526020019081526020016000206000820151816000019081610d1d9190613708565b506020820151816001019081610d339190613708565b506040820151816002019081610d499190613708565b506060820151816003015560808201518160040160006101000a81548160ff02191690831515021790555090505060016009600084815260200190815260200160002060006101000a81548160ff0219169083151502179055508773ffffffffffffffffffffffffffffffffffffffff16817f6586b70a5f256b0e2fb940f95df3be42bc31d2b9336cf0d74f55cd95a51b5706898989604051610dee939291906137da565b60405180910390a3809350505050949350505050565b600080610e1083611944565b9050600073ffffffffffffffffffffffffffffffffffffffff168173ffffffffffffffffffffffffffffffffffffffff1603610e81576040517f08c379a0000000000000000000000000000000000000000000000000000000008152600401610e7890613872565b60405180910390fd5b80915050919050565b60008073ffffffffffffffffffffffffffffffffffffffff168273ffffffffffffffffffffffffffffffffffffffff1603610efa576040517f08c379a0000000000000000000000000000000000000000000000000000000008152600401610ef190613904565b60405180910390fd5b600360008373ffffffffffffffffffffffffffffffffffffffff1673ffffffffffffffffffffffffffffffffffffffff168152602001908152602001600020549050919050565b7f114e74f6ea3bd819998f78687bfcb11b140da08e9b7d222fa9c1f1ba1f2aa12281565b60006006600084815260200190815260200160002060000160008373ffffffffffffffffffffffffffffffffffffffff1673ffffffffffffffffffffffffffffffffffffffff16815260200190815260200160002060009054906101000a900460ff16905092915050565b606060018054610fdf9061304f565b80601f016020809104026020016040519081016040528092919081815260200182805461100b9061304f565b80156110585780601f1061102d57610100808354040283529160200191611058565b820191906000526020600020905b81548152906001019060200180831161103b57829003601f168201915b5050505050905090565b6000801b81565b61107b61107461131e565b838361199f565b5050565b61109061108a61131e565b836113df565b6110cf576040517f08c379a00000000000000000000000000000000000000000000000000000000081526004016110c690613216565b60405180910390fd5b6110db84848484611b0b565b50505050565b60606110ec826112d3565b60006110f6611b67565b905060008151116111165760405180602001604052806000815250611141565b8061112084611b7e565b604051602001611131929190613924565b6040516020818303038152906040525b915050919050565b61115282610921565b61115b8161176d565b6111658383611862565b505050565b6000600560008473ffffffffffffffffffffffffffffffffffffffff1673ffffffffffffffffffffffffffffffffffffffff16815260200190815260200160002060008373ffffffffffffffffffffffffffffffffffffffff1673ffffffffffffffffffffffffffffffffffffffff16815260200190815260200160002060009054906101000a900460ff16905092915050565b60008084848460405160200161121693929190613448565b6040516020818303038152906040528051906020012090506009600082815260200190815260200160002060009054906101000a900460ff169150509392505050565b60007f7965db0b000000000000000000000000000000000000000000000000000000007bffffffffffffffffffffffffffffffffffffffffffffffffffffffff1916827bffffffffffffffffffffffffffffffffffffffffffffffffffffffff191614806112cc57506112cb82611c4c565b5b9050919050565b6112dc81611d2e565b61131b576040517f08c379a000000000000000000000000000000000000000000000000000000000815260040161131290613872565b60405180910390fd5b50565b600033905090565b816004600083815260200190815260200160002060006101000a81548173ffffffffffffffffffffffffffffffffffffffff021916908373ffffffffffffffffffffffffffffffffffffffff160217905550808273ffffffffffffffffffffffffffffffffffffffff1661139983610e04565b73ffffffffffffffffffffffffffffffffffffffff167f8c5be1e5ebec7d5bd14f71427d1e84f3dd0314c0f7b2291e5b200ac8c7c3b92560405160405180910390a45050565b6000806113eb83610e04565b90508073ffffffffffffffffffffffffffffffffffffffff168473ffffffffffffffffffffffffffffffffffffffff16148061142d575061142c818561116a565b5b8061146b57508373ffffffffffffffffffffffffffffffffffffffff1661145384610764565b73ffffffffffffffffffffffffffffffffffffffff16145b91505092915050565b8273ffffffffffffffffffffffffffffffffffffffff1661149482610e04565b73ffffffffffffffffffffffffffffffffffffffff16146114ea576040517f08c379a00000000000000000000000000000000000000000000000000000000081526004016114e1906139ba565b60405180910390fd5b600073ffffffffffffffffffffffffffffffffffffffff168273ffffffffffffffffffffffffffffffffffffffff1603611559576040517f08c379a000000000000000000000000000000000000000000000000000000000815260040161155090613a4c565b60405180910390fd5b6115668383836001611d6f565b8273ffffffffffffffffffffffffffffffffffffffff1661158682610e04565b73ffffffffffffffffffffffffffffffffffffffff16146115dc576040517f08c379a00000000000000000000000000000000000000000000000000000000081526004016115d3906139ba565b60405180910390fd5b6004600082815260200190815260200160002060006101000a81549073ffffffffffffffffffffffffffffffffffffffff02191690556001600360008573ffffffffffffffffffffffffffffffffffffffff1673ffffffffffffffffffffffffffffffffffffffff168152602001908152602001600020600082825403925050819055506001600360008473ffffffffffffffffffffffffffffffffffffffff1673ffffffffffffffffffffffffffffffffffffffff16815260200190815260200160002060008282540192505081905550816002600083815260200190815260200160002060006101000a81548173ffffffffffffffffffffffffffffffffffffffff021916908373ffffffffffffffffffffffffffffffffffffffff160217905550808273ffffffffffffffffffffffffffffffffffffffff168473ffffffffffffffffffffffffffffffffffffffff167fddf252ad1be2c89b69c2b068fc378daa952ba7f163c4a11628f55a4df523b3ef60405160405180910390a46117688383836001611e55565b505050565b61177e8161177961131e565b611e5b565b50565b61178b8282610f65565b61185e5760016006600084815260200190815260200160002060000160008373ffffffffffffffffffffffffffffffffffffffff1673ffffffffffffffffffffffffffffffffffffffff16815260200190815260200160002060006101000a81548160ff02191690831515021790555061180361131e565b73ffffffffffffffffffffffffffffffffffffffff168173ffffffffffffffffffffffffffffffffffffffff16837f2f8788117e7eff1d82e926ec794901d17c78024a50270940304540a733656f0d60405160405180910390a45b5050565b61186c8282610f65565b156119405760006006600084815260200190815260200160002060000160008373ffffffffffffffffffffffffffffffffffffffff1673ffffffffffffffffffffffffffffffffffffffff16815260200190815260200160002060006101000a81548160ff0219169083151502179055506118e561131e565b73ffffffffffffffffffffffffffffffffffffffff168173ffffffffffffffffffffffffffffffffffffffff16837ff6391f5c32d9c69d2a47ea670b442974b53935d1edc7fd64eb21e047a839171b60405160405180910390a45b5050565b60006002600083815260200190815260200160002060009054906101000a900473ffffffffffffffffffffffffffffffffffffffff169050919050565b61199b828260405180602001604052806000815250611ee0565b5050565b8173ffffffffffffffffffffffffffffffffffffffff168373ffffffffffffffffffffffffffffffffffffffff1603611a0d576040517f08c379a0000000000000000000000000000000000000000000000000000000008152600401611a0490613ab8565b60405180910390fd5b80600560008573ffffffffffffffffffffffffffffffffffffffff1673ffffffffffffffffffffffffffffffffffffffff16815260200190815260200160002060008473ffffffffffffffffffffffffffffffffffffffff1673ffffffffffffffffffffffffffffffffffffffff16815260200190815260200160002060006101000a81548160ff0219169083151502179055508173ffffffffffffffffffffffffffffffffffffffff168373ffffffffffffffffffffffffffffffffffffffff167f17307eab39ab6107e8899845ad3d59bd9653f200f220920489ca2b5937696c3183604051611afe91906127e2565b60405180910390a3505050565b611b16848484611474565b611b2284848484611f3b565b611b61576040517f08c379a0000000000000000000000000000000000000000000000000000000008152600401611b5890613b4a565b60405180910390fd5b50505050565b606060405180602001604052806000815250905090565b606060006001611b8d846120c2565b01905060008167ffffffffffffffff811115611bac57611bab612b7b565b5b6040519080825280601f01601f191660200182016040528015611bde5781602001600182028036833780820191505090505b509050600082602001820190505b600115611c41578080600190039150507f3031323334353637383961626364656600000000000000000000000000000000600a86061a8153600a8581611c3557611c34613b6a565b5b04945060008503611bec575b819350505050919050565b60007f80ac58cd000000000000000000000000000000000000000000000000000000007bffffffffffffffffffffffffffffffffffffffffffffffffffffffff1916827bffffffffffffffffffffffffffffffffffffffffffffffffffffffff19161480611d1757507f5b5e139f000000000000000000000000000000000000000000000000000000007bffffffffffffffffffffffffffffffffffffffffffffffffffffffff1916827bffffffffffffffffffffffffffffffffffffffffffffffffffffffff1916145b80611d275750611d2682612215565b5b9050919050565b60008073ffffffffffffffffffffffffffffffffffffffff16611d5083611944565b73ffffffffffffffffffffffffffffffffffffffff1614159050919050565b611d7b8484848461227f565b600073ffffffffffffffffffffffffffffffffffffffff168473ffffffffffffffffffffffffffffffffffffffff1614158015611de55750600073ffffffffffffffffffffffffffffffffffffffff168373ffffffffffffffffffffffffffffffffffffffff1614155b15611e4f576008600083815260200190815260200160002060040160009054906101000a900460ff1615611e4e576040517f08c379a0000000000000000000000000000000000000000000000000000000008152600401611e4590613be5565b60405180910390fd5b5b50505050565b50505050565b611e658282610f65565b611edc57611e7281612285565b611e808360001c60206122b2565b604051602001611e91929190613c9d565b6040516020818303038152906040526040517f08c379a0000000000000000000000000000000000000000000000000000000008152600401611ed39190612967565b60405180910390fd5b5050565b611eea83836124ee565b611ef76000848484611f3b565b611f36576040517f08c379a0000000000000000000000000000000000000000000000000000000008152600401611f2d90613b4a565b60405180910390fd5b505050565b6000611f5c8473ffffffffffffffffffffffffffffffffffffffff1661270b565b156120b5578373ffffffffffffffffffffffffffffffffffffffff1663150b7a02611f8561131e565b8786866040518563ffffffff1660e01b8152600401611fa79493929190613d2c565b6020604051808303816000875af1925050508015611fe357506040513d601f19601f82011682018060405250810190611fe09190613d8d565b60015b612065573d8060008114612013576040519150601f19603f3d011682016040523d82523d6000602084013e612018565b606091505b50600081510361205d576040517f08c379a000000000000000000000000000000000000000000000000000000000815260040161205490613b4a565b60405180910390fd5b805181602001fd5b63150b7a0260e01b7bffffffffffffffffffffffffffffffffffffffffffffffffffffffff1916817bffffffffffffffffffffffffffffffffffffffffffffffffffffffff1916149150506120ba565b600190505b949350505050565b600080600090507a184f03e93ff9f4daa797ed6e38ed64bf6a1f0100000000000000008310612120577a184f03e93ff9f4daa797ed6e38ed64bf6a1f010000000000000000838161211657612115613b6a565b5b0492506040810190505b6d04ee2d6d415b85acef8100000000831061215d576d04ee2d6d415b85acef8100000000838161215357612152613b6a565b5b0492506020810190505b662386f26fc10000831061218c57662386f26fc10000838161218257612181613b6a565b5b0492506010810190505b6305f5e10083106121b5576305f5e10083816121ab576121aa613b6a565b5b0492506008810190505b61271083106121da5761271083816121d0576121cf613b6a565b5b0492506004810190505b606483106121fd57606483816121f3576121f2613b6a565b5b0492506002810190505b600a831061220c576001810190505b80915050919050565b60007f01ffc9a7000000000000000000000000000000000000000000000000000000007bffffffffffffffffffffffffffffffffffffffffffffffffffffffff1916827bffffffffffffffffffffffffffffffffffffffffffffffffffffffff1916149050919050565b50505050565b60606122ab8273ffffffffffffffffffffffffffffffffffffffff16601460ff166122b2565b9050919050565b6060600060028360026122c59190613dba565b6122cf9190613dfc565b67ffffffffffffffff8111156122e8576122e7612b7b565b5b6040519080825280601f01601f19166020018201604052801561231a5781602001600182028036833780820191505090505b5090507f30000000000000000000000000000000000000000000000000000000000000008160008151811061235257612351613e30565b5b60200101907effffffffffffffffffffffffffffffffffffffffffffffffffffffffffffff1916908160001a9053507f7800000000000000000000000000000000000000000000000000000000000000816001815181106123b6576123b5613e30565b5b60200101907effffffffffffffffffffffffffffffffffffffffffffffffffffffffffffff1916908160001a905350600060018460026123f69190613dba565b6124009190613dfc565b90505b60018111156124a0577f3031323334353637383961626364656600000000000000000000000000000000600f86166010811061244257612441613e30565b5b1a60f81b82828151811061245957612458613e30565b5b60200101907effffffffffffffffffffffffffffffffffffffffffffffffffffffffffffff1916908160001a905350600485901c94508061249990613e5f565b9050612403565b50600084146124e4576040517f08c379a00000000000000000000000000000000000000000000000000000000081526004016124db90613ed4565b60405180910390fd5b8091505092915050565b600073ffffffffffffffffffffffffffffffffffffffff168273ffffffffffffffffffffffffffffffffffffffff160361255d576040517f08c379a000000000000000000000000000000000000000000000000000000000815260040161255490613f40565b60405180910390fd5b61256681611d2e565b156125a6576040517f08c379a000000000000000000000000000000000000000000000000000000000815260040161259d90613fac565b60405180910390fd5b6125b4600083836001611d6f565b6125bd81611d2e565b156125fd576040517f08c379a00000000000000000000000000000000000000000000000000000000081526004016125f490613fac565b60405180910390fd5b6001600360008473ffffffffffffffffffffffffffffffffffffffff1673ffffffffffffffffffffffffffffffffffffffff16815260200190815260200160002060008282540192505081905550816002600083815260200190815260200160002060006101000a81548173ffffffffffffffffffffffffffffffffffffffff021916908373ffffffffffffffffffffffffffffffffffffffff160217905550808273ffffffffffffffffffffffffffffffffffffffff16600073ffffffffffffffffffffffffffffffffffffffff167fddf252ad1be2c89b69c2b068fc378daa952ba7f163c4a11628f55a4df523b3ef60405160405180910390a4612707600083836001611e55565b5050565b6000808273ffffffffffffffffffffffffffffffffffffffff163b119050919050565b6000604051905090565b600080fd5b600080fd5b60007fffffffff0000000000000000000000000000000000000000000000000000000082169050919050565b61277781612742565b811461278257600080fd5b50565b6000813590506127948161276e565b92915050565b6000602082840312156127b0576127af612738565b5b60006127be84828501612785565b91505092915050565b60008115159050919050565b6127dc816127c7565b82525050565b60006020820190506127f760008301846127d3565b92915050565b6000819050919050565b612810816127fd565b811461281b57600080fd5b50565b60008135905061282d81612807565b92915050565b60006020828403121561284957612848612738565b5b60006128578482850161281e565b91505092915050565b600081519050919050565b600082825260208201905092915050565b60005b8381101561289a57808201518184015260208101905061287f565b60008484015250505050565b6000601f19601f8301169050919050565b60006128c282612860565b6128cc818561286b565b93506128dc81856020860161287c565b6128e5816128a6565b840191505092915050565b6128f9816127fd565b82525050565b600060a082019050818103600083015261291981886128b7565b9050818103602083015261292d81876128b7565b9050818103604083015261294181866128b7565b905061295060608301856128f0565b61295d60808301846127d3565b9695505050505050565b6000602082019050818103600083015261298181846128b7565b905092915050565b600073ffffffffffffffffffffffffffffffffffffffff82169050919050565b60006129b482612989565b9050919050565b6129c4816129a9565b82525050565b60006020820190506129df60008301846129bb565b92915050565b6129ee816129a9565b81146129f957600080fd5b50565b600081359050612a0b816129e5565b92915050565b60008060408385031215612a2857612a27612738565b5b6000612a36858286016129fc565b9250506020612a478582860161281e565b9150509250929050565b600080600060608486031215612a6a57612a69612738565b5b6000612a78868287016129fc565b9350506020612a89868287016129fc565b9250506040612a9a8682870161281e565b9150509250925092565b6000819050919050565b612ab781612aa4565b8114612ac257600080fd5b50565b600081359050612ad481612aae565b92915050565b600060208284031215612af057612aef612738565b5b6000612afe84828501612ac5565b91505092915050565b612b1081612aa4565b82525050565b6000602082019050612b2b6000830184612b07565b92915050565b60008060408385031215612b4857612b47612738565b5b6000612b5685828601612ac5565b9250506020612b67858286016129fc565b9150509250929050565b600080fd5b600080fd5b7f4e487b7100000000000000000000000000000000000000000000000000000000600052604160045260246000fd5b612bb3826128a6565b810181811067ffffffffffffffff82111715612bd257612bd1612b7b565b5b80604052505050565b6000612be561272e565b9050612bf18282612baa565b919050565b600067ffffffffffffffff821115612c1157612c10612b7b565b5b612c1a826128a6565b9050602081019050919050565b82818337600083830152505050565b6000612c49612c4484612bf6565b612bdb565b905082815260208101848484011115612c6557612c64612b76565b5b612c70848285612c27565b509392505050565b600082601f830112612c8d57612c8c612b71565b5b8135612c9d848260208601612c36565b91505092915050565b60008060008060808587031215612cc057612cbf612738565b5b6000612cce878288016129fc565b945050602085013567ffffffffffffffff811115612cef57612cee61273d565b5b612cfb87828801612c78565b935050604085013567ffffffffffffffff811115612d1c57612d1b61273d565b5b612d2887828801612c78565b925050606085013567ffffffffffffffff811115612d4957612d4861273d565b5b612d5587828801612c78565b91505092959194509250565b6000602082019050612d7660008301846128f0565b92915050565b600060208284031215612d9257612d91612738565b5b6000612da0848285016129fc565b91505092915050565b612db2816127c7565b8114612dbd57600080fd5b50565b600081359050612dcf81612da9565b92915050565b60008060408385031215612dec57612deb612738565b5b6000612dfa858286016129fc565b9250506020612e0b85828601612dc0565b9150509250929050565b600067ffffffffffffffff821115612e3057612e2f612b7b565b5b612e39826128a6565b9050602081019050919050565b6000612e59612e5484612e15565b612bdb565b905082815260208101848484011115612e7557612e74612b76565b5b612e80848285612c27565b509392505050565b600082601f830112612e9d57612e9c612b71565b5b8135612ead848260208601612e46565b91505092915050565b60008060008060808587031215612ed057612ecf612738565b5b6000612ede878288016129fc565b9450506020612eef878288016129fc565b9350506040612f008782880161281e565b925050606085013567ffffffffffffffff811115612f2157612f2061273d565b5b612f2d87828801612e88565b91505092959194509250565b60008060408385031215612f5057612f4f612738565b5b6000612f5e858286016129fc565b9250506020612f6f858286016129fc565b9150509250929050565b600080600060608486031215612f9257612f91612738565b5b600084013567ffffffffffffffff811115612fb057612faf61273d565b5b612fbc86828701612c78565b935050602084013567ffffffffffffffff811115612fdd57612fdc61273d565b5b612fe986828701612c78565b925050604084013567ffffffffffffffff81111561300a5761300961273d565b5b61301686828701612c78565b9150509250925092565b7f4e487b7100000000000000000000000000000000000000000000000000000000600052602260045260246000fd5b6000600282049050600182168061306757607f821691505b60208210810361307a57613079613020565b5b50919050565b7f4552433732313a20617070726f76616c20746f2063757272656e74206f776e6560008201527f7200000000000000000000000000000000000000000000000000000000000000602082015250565b60006130dc60218361286b565b91506130e782613080565b604082019050919050565b6000602082019050818103600083015261310b816130cf565b9050919050565b7f4552433732313a20617070726f76652063616c6c6572206973206e6f7420746f60008201527f6b656e206f776e6572206f7220617070726f76656420666f7220616c6c000000602082015250565b600061316e603d8361286b565b915061317982613112565b604082019050919050565b6000602082019050818103600083015261319d81613161565b9050919050565b7f4552433732313a2063616c6c6572206973206e6f7420746f6b656e206f776e6560008201527f72206f7220617070726f76656400000000000000000000000000000000000000602082015250565b6000613200602d8361286b565b915061320b826131a4565b604082019050919050565b6000602082019050818103600083015261322f816131f3565b9050919050565b7f416363657373436f6e74726f6c3a2063616e206f6e6c792072656e6f756e636560008201527f20726f6c657320666f722073656c660000000000000000000000000000000000602082015250565b6000613292602f8361286b565b915061329d82613236565b604082019050919050565b600060208201905081810360008301526132c181613285565b9050919050565b7f4e6f6e6578697374656e7420746f6b656e000000000000000000000000000000600082015250565b60006132fe60118361286b565b9150613309826132c8565b602082019050919050565b6000602082019050818103600083015261332d816132f1565b9050919050565b7f4e6f74206f776e6572206f722061646d696e0000000000000000000000000000600082015250565b600061336a60128361286b565b915061337582613334565b602082019050919050565b600060208201905081810360008301526133998161335d565b9050919050565b7f416c726561647920726574697265640000000000000000000000000000000000600082015250565b60006133d6600f8361286b565b91506133e1826133a0565b602082019050919050565b60006020820190508181036000830152613405816133c9565b9050919050565b600081905092915050565b600061342282612860565b61342c818561340c565b935061343c81856020860161287c565b80840191505092915050565b60006134548286613417565b91506134608285613417565b915061346c8284613417565b9150819050949350505050565b7f566572696669636174696f6e20616c7265616479207573656400000000000000600082015250565b60006134af60198361286b565b91506134ba82613479565b602082019050919050565b600060208201905081810360008301526134de816134a2565b9050919050565b7f4e487b7100000000000000000000000000000000000000000000000000000000600052601160045260246000fd5b600061351f826127fd565b91507fffffffffffffffffffffffffffffffffffffffffffffffffffffffffffffffff8203613551576135506134e5565b5b600182019050919050565b60008190508160005260206000209050919050565b60006020601f8301049050919050565b600082821b905092915050565b6000600883026135be7fffffffffffffffffffffffffffffffffffffffffffffffffffffffffffffffff82613581565b6135c88683613581565b95508019841693508086168417925050509392505050565b6000819050919050565b60006136056136006135fb846127fd565b6135e0565b6127fd565b9050919050565b6000819050919050565b61361f836135ea565b61363361362b8261360c565b84845461358e565b825550505050565b600090565b61364861363b565b613653818484613616565b505050565b5b818110156136775761366c600082613640565b600181019050613659565b5050565b601f8211156136bc5761368d8161355c565b61369684613571565b810160208510156136a5578190505b6136b96136b185613571565b830182613658565b50505b505050565b600082821c905092915050565b60006136df600019846008026136c1565b1980831691505092915050565b60006136f883836136ce565b9150826002028217905092915050565b61371182612860565b67ffffffffffffffff81111561372a57613729612b7b565b5b613734825461304f565b61373f82828561367b565b600060209050601f8311600181146137725760008415613760578287015190505b61376a85826136ec565b8655506137d2565b601f1984166137808661355c565b60005b828110156137a857848901518255600182019150602085019450602081019050613783565b868310156137c557848901516137c1601f8916826136ce565b8355505b6001600288020188555050505b505050505050565b600060608201905081810360008301526137f481866128b7565b9050818103602083015261380881856128b7565b9050818103604083015261381c81846128b7565b9050949350505050565b7f4552433732313a20696e76616c696420746f6b656e2049440000000000000000600082015250565b600061385c60188361286b565b915061386782613826565b602082019050919050565b6000602082019050818103600083015261388b8161384f565b9050919050565b7f4552433732313a2061646472657373207a65726f206973206e6f74206120766160008201527f6c6964206f776e65720000000000000000000000000000000000000000000000602082015250565b60006138ee60298361286b565b91506138f982613892565b604082019050919050565b6000602082019050818103600083015261391d816138e1565b9050919050565b60006139308285613417565b915061393c8284613417565b91508190509392505050565b7f4552433732313a207472616e736665722066726f6d20696e636f72726563742060008201527f6f776e6572000000000000000000000000000000000000000000000000000000602082015250565b60006139a460258361286b565b91506139af82613948565b604082019050919050565b600060208201905081810360008301526139d381613997565b9050919050565b7f4552433732313a207472616e7366657220746f20746865207a65726f2061646460008201527f7265737300000000000000000000000000000000000000000000000000000000602082015250565b6000613a3660248361286b565b9150613a41826139da565b604082019050919050565b60006020820190508181036000830152613a6581613a29565b9050919050565b7f4552433732313a20617070726f766520746f2063616c6c657200000000000000600082015250565b6000613aa260198361286b565b9150613aad82613a6c565b602082019050919050565b60006020820190508181036000830152613ad181613a95565b9050919050565b7f4552433732313a207472616e7366657220746f206e6f6e20455243373231526560008201527f63656976657220696d706c656d656e7465720000000000000000000000000000602082015250565b6000613b3460328361286b565b9150613b3f82613ad8565b604082019050919050565b60006020820190508181036000830152613b6381613b27565b9050919050565b7f4e487b7100000000000000000000000000000000000000000000000000000000600052601260045260246000fd5b7f43616e6e6f74207472616e73666572207265746972656420746f6b656e000000600082015250565b6000613bcf601d8361286b565b9150613bda82613b99565b602082019050919050565b60006020820190508181036000830152613bfe81613bc2565b9050919050565b7f416363657373436f6e74726f6c3a206163636f756e7420000000000000000000600082015250565b6000613c3b60178361340c565b9150613c4682613c05565b601782019050919050565b7f206973206d697373696e6720726f6c6520000000000000000000000000000000600082015250565b6000613c8760118361340c565b9150613c9282613c51565b601182019050919050565b6000613ca882613c2e565b9150613cb48285613417565b9150613cbf82613c7a565b9150613ccb8284613417565b91508190509392505050565b600081519050919050565b600082825260208201905092915050565b6000613cfe82613cd7565b613d088185613ce2565b9350613d1881856020860161287c565b613d21816128a6565b840191505092915050565b6000608082019050613d4160008301876129bb565b613d4e60208301866129bb565b613d5b60408301856128f0565b8181036060830152613d6d8184613cf3565b905095945050505050565b600081519050613d878161276e565b92915050565b600060208284031215613da357613da2612738565b5b6000613db184828501613d78565b91505092915050565b6000613dc5826127fd565b9150613dd0836127fd565b9250828202613dde816127fd565b91508282048414831517613df557613df46134e5565b5b5092915050565b6000613e07826127fd565b9150613e12836127fd565b9250828201905080821115613e2a57613e296134e5565b5b92915050565b7f4e487b7100000000000000000000000000000000000000000000000000000000600052603260045260246000fd5b6000613e6a826127fd565b915060008203613e7d57613e7c6134e5565b5b600182039050919050565b7f537472696e67733a20686578206c656e67746820696e73756666696369656e74600082015250565b6000613ebe60208361286b565b9150613ec982613e88565b602082019050919050565b60006020820190508181036000830152613eed81613eb1565b9050919050565b7f4552433732313a206d696e7420746f20746865207a65726f2061646472657373600082015250565b6000613f2a60208361286b565b9150613f3582613ef4565b602082019050919050565b60006020820190508181036000830152613f5981613f1d565b9050919050565b7f4552433732313a20746f6b656e20616c7265616479206d696e74656400000000600082015250565b6000613f96601c8361286b565b9150613fa182613f60565b602082019050919050565b60006020820190508181036000830152613fc581613f89565b905091905056fea2646970667358221220446a103e77125ecddc01a248c77430b3b86f033b0441709bf0ba7dbc6bffbe0e64736f6c63430008130033",
  "linkReferences": {},
  "deployedLinkReferences": {},
  "immutableReferences": {},
  "inputSourceName": "project/contracts/BlueCarbonRegistry.sol",
  "buildInfoId": "solc-0_8_19-41b5cd6498e23783dfee7f9f021c69b2c7bbfa61"
}